:100000000C945D040C947A040C947A040C947A0495
:100010000C947A040C947A040C947A040C947A0468
:100020000C947A040C947A040C947A040C947A0458
:100030000C947A040C947A040C947A040C947A0448
:100040000C947A040C947A040C947A040C947A0438
:100050000C947A040C947A040C947A040C947A0428
:100060000C947A040C947A045F00040305050405DB
:10007000061614FDFC0EFC0EFE028805D70834207F
:100080000600602C012111C4253443E2E0C0424443
:1000900099C4418404002209A564464182170223C1
:1000A0001F8B616449424C424C42E660E26046422A
:1000B0004C42E660E26046424C424C420800242337
:1000C00049A65B2930AC4622A224A224A422C8E679
:1000D00020E420C628A224A422A42242A62C300870
:1000E00000252CEEE17B65464A64224826444826DA
:1000F000244A26424A24DD8870CC98884854884C8B
:1001000090884C508C4C8C92A0A8A950002623D0EB
:10011000258C8B5644524652467242B478A6C64647
:1001200068822468A66A886A8AA6E620E4660400D3
:100130002708A2642EE16000281205A23347446418
:10014000446444466F6664668404291105A2334101
:1001500048664666469F8C888CA8012A12E7E045CF
:100160006524C94484C88844C4489211002B0E4AAF
:10017000215C4950A3830323418D002C0CE4602BA8
:1001800043E22062241B002D0865E034E141002E8B
:100190000B84202C43E2204202002F10C6213C4950
:1001A0005190A22045418A8214013014C9255C6710
:1001B0006862444662C6BF99901199189A01310C41
:1001C000C7295C4768A468FFC9013217C9255C8745
:1001D000466462C66642666C6A6C6A4A4CD5C14126
:1001E000013319C9255C87466462C66642664C685D
:1001F000526E42C6CD84C84C09003419C9255C2F03
:100200004E6C8A51C44CC848CC48CC44D0C481D42C
:10021000D854013517C9255CE320E22430A14DCC28
:10022000DCD8848C9B09919912003618C9255CA7EB
:1002300064858C8DC4D8C408C51A6F26642646848C
:1002400066003712C9255CE141D994989C989CD8E6
:10025000AAB18D003818C9255C674846428AAAE8C9
:1002600042C4C824E4A88AAA46860600391AC925C9
:100270005C674864624662C69B89099289B1091924
:100280001B8991911A003A0F24253443E220424CF5
:10029000E2204202003B1084653343E220424CE2FC
:1002A0002062241B003C0C4A215C518C8833420E96
:1002B000053D0CC9A45CE1013DCCC101013E0C4AE5
:1002C000215C419067449C09023F14C92154A74412
:1002D000E4C66642664CF7106254644200402ACF7E
:1002E0002184EB6C4C463244A644424409898C0874
:1002F000898C08858C88841A1109251322221344BD
:1003000092316362074100411ECE1D742F5A7696CA
:100310003262324430662E662C6AEA40286C286EBF
:10032000446E82AA004222CC2174E1606686646831
:10033000646864686466E62068C9D4C4D4C4D4C45C
:10034000D4C4D0C4810C004318CC2174A92484C522
:1003500098C45821CB0D23E622C66268A46A0044E3
:1003600023CE2184E1606A88666C646C646E626E80
:10037000626E626E626E626E626C646C6488E4606F
:1003800008004523CB216CE1806268624A62262422
:100390006226246244E868446826682624622C6247
:1003A0004A62E8E000461FCB216CE1806268624A45
:1003B0006226246226246244E86844682668266827
:1003C000709D15004720CD217CA9248684644C644F
:1003D0004C623062306274D541D8C8D4C8D40C099C
:1003E000554904004822CE2184A1A8626C646C6443
:1003F0006C646C646CE4A0646C646C646C646C64C9
:100400006C646CA2A800490BC5254CA16264FF8BEB
:10041000024A15CA1D64AB6C6E9FC84C904C904C40
:10042000088D880C11014B20CE2184A1A6644A6856
:10043000486A466C446E42D0F06E826C846A86686C
:1004400088668AA2C6004C11CA2164A16C6E7F1511
:10045000311531243173604D33D1219CC1AC848C72
:10046000A68A26622862266426622664266226649C
:1004700024642666226426662264268666266866CA
:10048000266866642868A226A6004E25CE218481AF
:10049000AA826A862A882AA828054D500849500C45
:1004A0004550505114511451D8CC98485908004F18
:1004B00018CE2184C98C84666C646C62D00F27C608
:1004C00046C66648C88C00501ACC2174E140688644
:1004D00064886288628862886286E42068728775B0
:1004E0000051204E2283C98C84666C646C62D02FCC
:1004F000682646464466246628CA8C8527224B47D0
:10050000005223CD2184E1806688646A646A646A4B
:100510006468E6206A666866688666686668666813
:10052000C26802005319CA2164872264C590C4546A
:100530000499D595995559D5C9444809005413CB08
:10054000216CE1C064CD8CCC8CCC4CD0E07E5703C8
:100550005522CE2184A1A8626C642E662E662E667A
:100560002E662E662E662E662E662E662E6848CE67
:100570000800561FCF1D74C1A8826C662E882A6C95
:100580002A6C2A6E2670267222742276783A3C0EE5
:1005900000572FD41D9CC1C2A482866866682A8831
:1005A00086266C86266C86268C2282227022642205
:1005B00070226422908674687468362C382C0C0083
:1005C000581DCF218CC3A486688A466E44D0949867
:1005D000B4D450844C686A88668CA2C8005917CD80
:1005E000217CC186824A662A88466A268C22B0729D
:1005F000740F6F005A1ACC216CE14158D944184548
:10060000141DE1201DAB08B288B1B28383005B0AE0
:1006100004A633C144FF4F085C14C8214C414C4E22
:100620004C4E4C4E4C4E4C4E4C4E4C005D0A04A26F
:10063000338144FF4F0C5E0F08A14D474C8A88461A
:10064000440B2122015F0849604BE10101600985EB
:10065000A43E4166910061142A215CE3646642680D
:100660008C6662CDC4CCC4089301621ACC1D64812F
:10067000722F886846A626A626A626A626A626683F
:1006800046246A006310292154A764C4A86CAB886F
:1006900019191200641ACC216C8F72471423331479
:1006A0005313531353135313532333441404651434
:1006B0002A215C87686462C8E8E0406E2C6248A624
:1006C00004006610C8213C87466257433653FBA896
:1006D0000600671FEB215B5370C4686446484648B8
:1006E0006664C848F220E820426A424C6248E60646
:1006F000006819CC216C81722F6A4848864686466C
:1007000086468646864686264A0A690BC521346394
:10071000642DC97E516A10471633697B10A2FD9182
:1007200085850809006B18CC216C81724F4A66845C
:1007300046C226C4AE2688466866282A0C6C0AC5BE
:1007400021348164FF17056D1A3321A481A2C2866A
:10075000A4846468C9D092A125434B86960CAD2829
:10076000696E182C216C81A2868464686468646850
:10077000646864686468A2A4006F102B2164A76891
:100780006662CA571333433500701CAC1D63618425
:100790008866646A626A626A626A626A826664829F
:1007A0006872611D00711AAC216387446486626AB5
:1007B000626A626A626A626A6486886272C302728C
:1007C0001028214C814284426244626A473500739A
:1007D00014292154852244466228C2E8CAAA482224
:1007E000A204007412A72144272C4A68C664684FEB
:1007F000224642280075172C216CA1846468646825
:100800006468646864686468844D050176152A1D0F
:100810004CA16462286428662468248A8C4E50089F
:1008200000771E301D7CA1A264626628646628667B
:1008300084246884248A848C844E48504808007834
:10084000142B2164C1828D0C8554DD5C95048D0CC4
:10085000058501791DAB2163A166622A642A66269B
:1008600068266A226C226E70324A266A226E0E0058
:100870007A0F292154E180A686889B22A203027B5D
:100880000F05A233474464278A64467623247C07F5
:10089000C2315CE1077D1005A233414866641B212B
:1008A00011913D51037E0C6A246565C541C4C80899
:1008B0000000000004FFFF00000011241FBECFEF66
:1008C000D8E0DEBFCDBF11E0A0E0B1E0EAE1F5E2A3
:1008D00002C005900D92A437B107D9F725E0A4E72F
:1008E000B1E001C01D92A937B207E1F70E94E40D03
:1008F0000C948B120C940000BF92CF92DF92EF9277
:10090000FF920F931F93CF93DF937C01DC019496AA
:10091000BC9094979596DC909597ED91FC91C18849
:10092000D0E0C0E0D701ED91FC911197208992961B
:100930000D911C912C9FC0012D9F900D112433E02F
:10094000880F991F3A95E1F7080F191F4C2F4D0D8D
:1009500060E0C7010E94FA0B8C2F8F5F8B1528F483
:1009600021968C2F8D0D8C15E8F2DF91CF911F9180
:100970000F91FF90EF90DF90CF90BF900895FC0112
:10098000A081B18150964C9184A1489FA00111246F
:1009900083E0440F551F8A95E1F770E060E082A183
:1009A00093A10C94BB0FCF93DF93EC010E947C04C6
:1009B000CE01DF91CF910C94370C28E0FC0120830D
:1009C00084E791E00895CF92DF92EF92FF920F9328
:1009D0001F93CF93DF930F92CDB7DEB77C016B01EE
:1009E00089019A0140E55BE064EB7CE00E94F40C35
:1009F000CE0101960E94DD0486012BE639E0498193
:100A0000BC01C7010E94580A0F90DF91CF911F913E
:100A10000F91FF90EF90DF90CF900895FC01E60FCB
:100A2000F11D849190E0982F88273196E4918E0FE4
:100A3000911D089580E00895815A9F4FFC018081A7
:100A40008F5F08950F931F93CF93DF93EC018B017A
:100A5000FB01849188833196E491E983FB0132960E
:100A6000E491EA83FB013396E491EB83FB01349636
:100A7000E491EC83FB013596E491ED83FB0136961E
:100A8000E491EE83FB013796E491EF83FB01389606
:100A9000E491E887FB013996E491E987FB013A96F6
:100AA000E491EA87FB013B96E491EB87FB013C96DE
:100AB000E491EC87FB013D96E491ED87FB013E96C6
:100AC000E491EE87FB013F96E491EF87FB0170967E
:100AD000E491E88B61E1C8010E940E059A8B898B35
:100AE00063E1C8010E940E059C8B8B8B65E1C801F8
:100AF0000E940E059E8B8D8BDF91CF911F910F91E0
:100B00000895DC0118964C911897ED91FC9111977E
:100B1000249130E0042E02C0359527950A94E2F71F
:100B2000842F860F883068F031961196FC93EE93EF
:100B3000E49198E0941B01C0EE0F9A95EAF72E2BF2
:100B4000885018968C938FEF9FEF01C0880F6A959D
:100B5000EAF78095822308950F931F93CF93DF9335
:100B6000EC018C01075C1F4F7AAF69AFFC01EF5BB2
:100B7000FF4F108239966081C8010E9481058FAFB6
:100B8000FE01E55BFF4F6081C8010E948105FE0107
:100B9000E05CFF4F8083B3969081B0979083CC5BED
:100BA000DF4F81E0911180E08883DF91CF911F9129
:100BB0000F910895CF93C62F0E948105C15021E067
:100BC00030E001C0220FCA95EAF7821BCF91089549
:100BD000213041F0222321F0223031F0861B08958C
:100BE000840F0895860F0895841B0895213041F0E5
:100BF000222321F0223031F0840F0895860F0895CA
:100C0000841B0895861B08952F923F924F925F9206
:100C10006F927F928F929F92AF92BF92CF92DF920C
:100C2000EF92FF920F931F93CF93DF9300D000D0EA
:100C300000D0CDB7DEB79E838D83662E4A83FC013C
:100C400015AD76ACEB5BFF4FFC83EB836C01F2E4FC
:100C5000CF0ED11C7C0183E6E80EF11CAD80BE8076
:100C600094E4A90EB11C8D809E80E3E48E0E911C4D
:100C7000ED81FE8127AC522C511A462C561408F4F3
:100C8000452CED81FE81F4ADF983EB81FC8100817F
:100C9000202F472D612FED81FE8183AD0E94F60547
:100CA000382E202F472D612F89810E94E805482F7B
:100CB000FA81FF2391F0F4018081F7018083242DD4
:100CC000632D8D819E810E94CC08160D651458F00D
:100CD000612E6218739410E0CBCFF60180818111F0
:100CE000F4CFF501E9CFED81FE8115AF76AE269602
:100CF0000FB6F894DEBF0FBECDBFDF91CF911F912D
:100D00000F91FF90EF90DF90CF90BF90AF909F90AA
:100D10008F907F906F905F904F903F902F900895AD
:100D20008F929F92AF92BF92CF92DF92EF92FF92FB
:100D30000F931F93CF93DF93EC016C0189E3C80EEF
:100D4000D11CCE010E94AC05FE01E05CFF4FE080AB
:100D50003C966081C6010E94DA05982EFE01E35B95
:100D6000FF4F6081C6010E94DA05B82EFE01E25BEA
:100D7000FF4F6081C6010E94DA05A82E0FAD101644
:100D80000CF05CC0FE01EB5BFF4FF080BE0CB19439
:100D90002F2D4B2D692D8BAD0E94F605182F8BAF93
:100DA0002F2D4B2D692D8CAD0E94E8058CAF91E065
:100DB000F91609F456C0FF2009F44EC0E2E0FE1611
:100DC00009F455C0F3E0FF1609F45CC0082F212F89
:100DD000482F612FCE010E944A09882379F11DAE68
:100DE0001EAE8E01085B1F4F4E0189E4880E911CD8
:100DF000F8016081C6010E948105B82EF40160816E
:100E0000C6010E948105F82E40E06B2DCE010E94A4
:100E1000040641E06F2DCE010E94040661E0C60188
:100E20000E9481058111F0CF8EAD8E150CF3FE016D
:100E3000ED59FF4FCD5BDF4F888180838A2DDF9195
:100E4000CF911F910F91FF90EF90DF90CF90BF90C7
:100E5000AF909F908F900895202F210F0E2D080F97
:100E6000B7CFFE1821E0210F080F1F0DB1CF91E081
:100E7000392F301B21E0210F9E1901E0080F890F47
:100E8000130FA6CF2E2D210F982F901B01E0080FD6
:100E900081E0890F9DCFEF92FF920F931F93CF9325
:100EA000DF938B01FC0125A936A9295E3F4F6F3FD7
:100EB000710509F048F561367105D8F0875A9F4FE2
:100EC000FC0180819181280F391FC9010196FC0125
:100ED0004491442309F446C0F90144914017110696
:100EE00071F40196DF91CF911F910F91FF90EF90D8
:100EF00008956134710548F3895A9F4FE1CFFC0191
:100F00008491280F311DE1CF855A9F4FFC01C0818C
:100F1000D181C20FD31F7E0160E0C7010E940E0580
:100F2000C80FD91F62E0C7010E940E05F4E0EF0E62
:100F3000F11C8017910780F3FE01849190E0982FB7
:100F400088273196E4918E2B009761F008171907D6
:100F500019F4CE010396C6CFFE013296E491CE0F6E
:100F6000D11DEACF90E080E0BDCFEF92FF920F93CA
:100F70001F93CF93DF93EC01062F142F7901FC010F
:100F8000EB5BFF4F80818130F1F08823B1F082303C
:100F900001F1833021F10BAF1CAFB701CE010E94EC
:100FA0004B07009711F1BC01CE01DF91CF911F914A
:100FB0000F91FF90EF900C949006EFA9F8ADCE0141
:100FC0000995180FE8CFEFA9F8ADCE010995081BD8
:100FD000E2CFEFA9F8ADCE010995181BDCCFEFA940
:100FE000F8ADCE010995080FD6CF80E0DF91CF9103
:100FF0001F910F91FF90EF900895AF92BF92DF92F3
:10100000EF92FF920F931F93CF93DF93EC01162F74
:10101000042FB22ED32E0E948F0AEB2CFD2CD12C44
:101020005E0125E4A20EB11CF70161917F01EA8106
:10103000FB81CE0109958F3F9807F1F08E3F2FEF8E
:10104000920791F39C01402F612FCE010E94B507BA
:10105000F5019081913051F0992331F0923041F0B7
:10106000933041F0D80EE0CF180FFCCF080FFACF25
:10107000181BF8CF081BF6CF8D2DDF91CF911F9154
:101080000F91FF90EF90DF90BF90AF900895E5E84B
:10109000FAE0DC011396FC93EE9312970C94FD0793
:1010A000CF93DF93DC01D5962D913C91D697232BDE
:1010B000F9F0FC01ED5AFF4F2081A15ABF4F2C934C
:1010C000319650813C965083EC01C25ADF4F3881F3
:1010D000332371F0313079F42997388123170CF4D8
:1010E0003C938A5A9F4FEC01888185170CF48083CA
:1010F000DF91CF910895EC01C05BDF4F48818E5A9C
:101100009F4FEC013881822F220F990B632F032E02
:10111000000C770B640F711D47FD7A9586179707B2
:1011200014F4430F4C9335171CF73083E1CFFC01C7
:10113000E25AFF4F10820C9450082AE135E0FC017E
:1011400030AF27AB08952CE135E0FC0130AF27AB81
:101150000895CF93DF93EC018DA99EA98617970779
:1011600061F07EAB6DABCE018A5B9F4F0E94220582
:10117000CE01DF91CF910C945008DF91CF9108956B
:101180000F93DC0198963C919897431B5E96ED91E6
:10119000FC9109950F9108950F93DC01802FFD01BB
:1011A000E35AFF4F9081992309F43FC02223E9F1CC
:1011B000223020F0023089F56F5F621B082F01702A
:1011C00080FD35C09F968C919F97481770F1D096FF
:1011D0008C91D097481748F59E969C919E979D9626
:1011E0008C919D97260F2617F0F46917D8F42FEFEE
:1011F000290F8217D0F4681708F4682F291708F40C
:10120000922F961B9096ED91FC9191970480F58119
:10121000E02D292FCD01099508C0033079F64F5FE5
:10122000421BCCCF682F691720F30F9108959D962C
:101230008C919D976817C8F39E968C919E9768171E
:10124000A0F7D0969C91D0979F968C919F97240F52
:10125000241778F4491760F42FEF290F821728F725
:10126000481708F4482F291708F4922F941BCACF67
:10127000482F491798F3D9CF461738F4821740F012
:1012800081E0241730F080E008958217C8F3FBCF87
:1012900081E00895FF920F931F93CF93DF93EC01AA
:1012A000162FF22E202F68A98FA50E943C098823B3
:1012B00059F02F2D412F6EA58DA5DF91CF911F9154
:1012C0000F91FF900C943C0980E0DF91CF911F912A
:1012D0000F91FF900895CF92DF92EF92FF920F93BC
:1012E0001F93CF93DF93EC01942F9770A1E0B0E0B0
:1012F000092E01C0AA0F0A94EAF77A2F7E0183E62D
:10130000E80EF11CF701808110E0823018F41A2FEA
:10131000813021F150E0487FAAA1BBA1C880D980CB
:10132000F6018089849F6001859FD00C1124C60E30
:10133000D11CFD01EC0DFD1D011116C02E0F808189
:10134000812B872781932E13FACFDF91CF911F91A5
:101350000F91FF90EF90DF90CF90089570E0DACF7B
:10136000110F770F222389F33081312B37273083F8
:101370009F5F977021509111F3CF8EA1E80FF11D5F
:10138000D7018C91823028F4813009F071E011E0AE
:10139000E9CF71E0E7CFFC01A081B18184A1982F52
:1013A000990F990F990F97A350969C91509790324F
:1013B00008F09FE1990F990F990F96A325A1922FFD
:1013C000990F990F990F90A751963C915197682FBB
:1013D000620F7727771F3617170614F4832F821BA7
:1013E00091A7880F880F880F890F82A780EF83A7A6
:1013F00054968D919C915597813F910508F483A750
:1014000056968C9184A708950C94CB090F930E9453
:10141000C0080F9108950F93CF93DF93EC010CA9AF
:101420002AA94BA969A90E944A09FE01E35AFF4F64
:10143000811105C01082DF91CF910F91089581E055
:10144000808389A99DA5981708F48DA78AA99EA5D0
:10145000891708F48EA78BA99FA5981708F48FA762
:101460008CA998A9891738F788ABE5CFFC0115A698
:1014700083A586A781A587A782A580ABCF010C9401
:101480000B0ADC01D1961C92D197D3961C92D3976C
:101490008FEFD2968C93D297D4968C93D4979096C4
:1014A000ED91FC9191970280F381E02DCD0109949B
:1014B0000F931F93CF93DF93EC011EAA1DAA3F8FBA
:1014C0002E8F7BA36AA34CA31DA2FC01EE5BFF4FF2
:1014D0001082B0961082319681E0808331968083AD
:1014E00019A308A3D801ED91FC91CE010995CE0175
:1014F0000E94410ACE010E949D08CB5BDF4F1882FB
:10150000DF91CF911F910F910895662329F06A30E2
:1015100019F0862F90E008958FEF9FEF0895FC015A
:10152000108E08959A01DC011896ED91FC91462FDA
:1015300067E10994CF93DF930F92CDB7DEB769834C
:10154000AE014F5F5F4F61E00E94920A0F90DF9102
:10155000CF910895DC011896ED91FC9130E020E0E8
:1015600040E068E10994DC011896ED91FC9130E0CF
:1015700020E040E069E10994EF92FF921F93CF933E
:10158000DF93EC01162F7A010E94AA0A60E4CE01D3
:101590000E949A0AE885F9859701412F67E1CE01FB
:1015A0000995CE01DF91CF911F91FF90EF900C94A0
:1015B000B30A462FDC011696ED91FC9130E020E055
:1015C00065E10994462FDC011696ED91FC9130E01F
:1015D00020E066E109949A01DC011696ED91FC91F8
:1015E000462F67E10994DC011696ED91FC9130E0FD
:1015F00020E040E068E10994DC011696ED91FC9151
:1016000030E020E040E069E10994EF92FF920F930F
:101610001F93CF93DF930F92CDB7DEB77C018B0181
:10162000D8016C91673129F150F46531A0F40F9025
:10163000DF91CF911F910F91FF90EF9008956A3144
:1016400018F16E3FA1F7F8014181498369E2C701B2
:101650000E94D40C0BC0F80141814983D701169632
:10166000ED91FC9130E020E0C70109950E5F1F4F1E
:10167000D7CFF80181818983AE014F5F5F4F61E071
:10168000C7010E94EB0AF2CF0F5F1F4FD7011696DA
:10169000ED91FC9130E020E040E0C7010995C0CF1A
:1016A000EF92FF921F93CF93DF93EC01142F7901F8
:1016B000663181F160F4643109F44BC06531A1F009
:1016C00080E0DF91CF911F91FF90EF9008956831F6
:1016D000A1F128F16931A1F780917405882369F19E
:1016E000CE010E94B30A29C080917405882319F0A5
:1016F000CE010E94B30ACE010E94AA0A60E0CE0188
:101700000E949A0A612FCE010E949A0A81E080937A
:101710007405D7CF642F0E949A0A81E0D2CF8091BE
:101720007405882319F0CE010E94B30AA70119316C
:1017300038F4612FCE010E94BC0A10927405EDCFDF
:1017400068E1CE010E94BC0A185188E1E80EF11C44
:10175000EDCF8E898F3F11F488E78E8BE885F98570
:101760009701412F64E1CE01DF91CF911F91FF904E
:10177000EF900994FC0171836083FB012289FC01D5
:10178000248B0895CF93DF93EC01EA85FB8530E04D
:1017900020E040E068E20995EE81FF8130E020E042
:1017A00040E064E1CE01099541E06BE4CE010E9486
:1017B000D40CE881F981448169E2CE010E94D40C05
:1017C00040E06BE4CE010E94D40CE881F9814481B1
:1017D00069E2CE010E94D40C41E06BE4CE010E948C
:1017E000D40CE881F981458169E2CE01DF91CF9186
:1017F0000C94D40C0F931F93CF93DF9300D000D0A1
:101800000F92CDB7DEB76C834D832B831A83098388
:10181000DC011496ED91FC919E012F5F3F4F41E05A
:101820006FE009950F900F900F900F900F90DF9140
:10183000CF911F910F910895DC011496ED91FC91C9
:1018400030E020E040E069E00994DC011496ED917D
:10185000FC9130E020E040E06AE00994462FDC0192
:101860001496ED91FC9130E020E06BE00994DC01EE
:101870001496ED91FC9130E020E040E060E10994A5
:10188000EF92FF920F931F93CF93DF93EC01042FFE
:1018900079016D3009F447C050F46B30C9F180E034
:1018A000DF91CF911F910F91FF90EF9008956E30CF
:1018B00009F44CC06F3099F70E94F30AF7011381C5
:1018C000110F110F110F6C89160F60E4CE010E94E9
:1018D000D90A612F62956F706061CE010E94D90AAA
:1018E000612F6F70CE010E94E20AF7016481606B84
:1018F000CE010E94E20AF701408151816281660FA8
:10190000660F660FCE010E94EB0A0150A1F728C0B6
:1019100067E371E0442311F062E371E0CE010E94BD
:10192000050B81E0BDCF411109C06BE271E00E945F
:10193000050BE881F98182898C8BF3CF64E271E039
:101940000E94050BE881F9818389F6CF0E94F30A92
:1019500061E8CE010E94D90A602FCE010E94E20AFE
:10196000CE010E94FC0ADDCF1F93CF93DF93EC01E1
:10197000162F0E94400C81110CC0193079F01A30DA
:1019800049F4CE010E94C20B6CE371E0CE010E94CB
:10199000050B81E0DF91CF911F9108956CE071E01C
:1019A000CE010E94BA0BF5CFDC011A96ED91FC91A5
:1019B00030E020E0099480E00895FC01118210825B
:1019C0008BED9CE0958384839783868391878087C2
:1019D00093878287158A108E148615861686178639
:1019E0008FEF868B828F0895AF92BF92CF92DF9256
:1019F000EF92FF920F931F93CF93DF93EC015B0164
:101A00006A0179010E94DD0CBD82AC82DF82CE8248
:101A1000F986E8861B870A87CE01DF91CF911F9157
:101A20000F91FF90EF90DF90CF90BF90AF900C940C
:101A30001C0C1F93CF93DF93142F6831D9F048F417
:101A40006431A9F0673181F080E0DF91CF911F917F
:101A500008956931A1F06032B9F781E0F6CFE9016C
:101A600089910E94C50D9E011150C8F7F6CF0E94C2
:101A7000710DF3CFFC0186890E94770DEECF0E9495
:101A8000B60DEBCF6A3209F120F4693239F180E00A
:101A900008956B3221F06C32D1F781E00895242F44
:101AA00030E0A4E6B0E00E94810E28EF30E040E094
:101AB00050E00E945F0E233280F7822F0197F1F7EA
:101AC000ECCF85E38A95F1F700004150D0F7E5CFE0
:101AD0008FE99FE00197F1F700C000004150C0F787
:101AE000DCCF1092B90088E48093B800089544EAEE
:101AF00054E864E94093BC0030E020E09091BC00E1
:101B000097FD06C02F5F3F4F211591E03907B1F7D0
:101B10009091B900987F983011F0903159F78093E7
:101B2000BB005093BC0030E020E09091BC0097FDDA
:101B300006C02F5F3F4F211591E03907B1F7909113
:101B4000B900987F903211F0983579F46093BC0019
:101B500030E020E09091BC0094FFCCCF2F5F3F4F4E
:101B6000211591E03907B1F7C5CF089584E9809335
:101B7000BC0090E080E02091BC0024FF05C00196ED
:101B8000811521E09207B9F708958093BB0084E89E
:101B90008093BC008FEF90E0A0E0B0E02091BC000B
:101BA00027FD0CC00197A109B109C0F79091B900B8
:101BB000987F81E0983239F480E00895892B8A2B50
:101BC0008B2BA1F781E00895CF93DF93CDB7DEB7DC
:101BD000C556D1090FB6F894DEBF0FBECDBF84E065
:101BE00090E00E94900E7C01229A22E43DE049E1BF
:101BF0005DE066E071E0CE0101960E94E30488E7B3
:101C00008F8BCE0101960E94250C60E0CE010196DB
:101C10000E942E0CCE0101960E94BF04CE010196B7
:101C20000E94D30468E670E0CE0101960E94A908E4
:101C3000CE0101960E949708CE0101960E94A3084A
:101C400010E000E081E7C82E81E0D82ECE01019699
:101C50000E94BF042A9A2FEF89E698E12150804024
:101C60009040E1F700C000002A982FEF89E698E144
:101C7000215080409040E1F700C00000043611057B
:101C800014F010E000E01F930F93DF92CF92FF92C9
:101C9000EF920E94C20F970140E060E0CE010196F2
:101CA0000E944708CE0101960E94D3040F5F1F4F88
:101CB0000F900F900F900F900F900F90C7CFA1E251
:101CC0001A2EAA1BBB1BFD010DC0AA1FBB1FEE1FB6
:101CD000FF1FA217B307E407F50720F0A21BB30B01
:101CE000E40BF50B661F771F881F991F1A9469F77D
:101CF00060957095809590959B01AC01BD01CF01D9
:101D00000895A29FB001B39FC001A39F700D811DD4
:101D10001124911DB29F700D811D1124911D0895F4
:101D20000F931F93CF93DF938230910510F482E0DD
:101D300090E0E0917705F091780530E020E0B0E0A8
:101D4000A0E0309799F42115310509F447C0281B0C
:101D5000390B24303105C0F58A819B8161157105ED
:101D600071F1FB0193838283FE0111C04081518197
:101D70000281138148175907F8F04817590799F459
:101D8000109761F012960C93129713961C9332964B
:101D9000CF01DF91CF911F910F91089500937705A7
:101DA00010937805F4CF2115310519F04217530728
:101DB00018F49A01BD01EF01DF01F801C2CF909341
:101DC000780580937705D0CFFE01E20FF31F819352
:101DD00091932250310939832883DACF20917505F8
:101DE00030917605232B41F42091020130910301BB
:101DF0003093760520937505209100013091010103
:101E00002115310541F42DB73EB7409104015091A1
:101E10000501241B350B409175055091760542173D
:101E2000530708F0B5CF241B350B2817390708F4E2
:101E3000AFCFBC016E5F7F4F2617370708F4A8CFDE
:101E4000640F751F7093760560937505FA01819391
:101E500091939ECFCF93DF930097E9F0FC013297E7
:101E600013821282C0917705D0917805DE0130E0AF
:101E700020E02097A1F420813181820F931F2091CF
:101E80007505309176052817390709F067C0F0937A
:101E90007605E0937505DF91CF910895DA01AE17CD
:101EA000BF0708F040C012964D915C9113979D01B9
:101EB0004115510599F7D9011396FC93EE931297AA
:101EC0004D915D91A40FB51FEA17FB0779F480814E
:101ED00091810296840F951FD90111969C938E9340
:101EE0008281938113969C938E931297B0E0A0E029
:101EF0008A819B810097B9F5FE0181919191E80F4C
:101F0000F91F80917505909176058E179F0719F638
:101F1000109761F51092780510927705D0937605A9
:101F2000C0937505B8CFB383A28340815181840FDC
:101F3000951FA817B90771F44E5F5F4F8D919C9163
:101F40001197480F591F5183408312968D919C9190
:101F5000938382832115310509F0ADCFF093780585
:101F6000E093770598CFDE01EC01C2CF13961C9267
:101F70001E921297D3CFDC0101C06D9341505040A7
:101F8000E0F70895AEE0B0E0E8ECFFE00C946212F8
:101F90000D891E8986E08C831A8309838FEF9FE762
:101FA0009E838D83AE01475E5F4F6F89788DCE0132
:101FB00001960E94E50F2F813885020F131FF8014B
:101FC00010822E96E4E00C947E12ABE0B0E0EBEED3
:101FD000FFE00C9454127C013B018A01FC01178242
:101FE0001682838181FFB9C19AE0292ECE01019624
:101FF0005C01F7019381F30193FD859193FF81913A
:102000003F01882309F446C1853239F493FD859157
:1020100093FF81913F01853229F4B70190E00E943E
:10202000C611E7CF912C412C512CFFE1F51538F06A
:102030008B3209F188F4803201F1833221F157FCAF
:102040003AC020ED280F2A3040F556FE1FC0929C62
:10205000200D1124922E06C08D3291F0803379F735
:10206000689450F8F30193FD859193FF81913F01AE
:102070008111DBCF20C0689451F8689452F8F2CFF8
:10208000689453F8EFCF689454F8ECCF429C200D3D
:102090001124422E689455F8E5CF8E3229F456FC6F
:1020A000F9C0689456F8DECF8C3619F4689457F866
:1020B000D9CF8836B9F2982F9F7D95549330C0F0D0
:1020C0008336A1F18337C1F1833509F05BC0F80194
:1020D000C190D1908F01692D70E056FC02C06FEF66
:1020E0007FEFC6010E94B0114C01689457F80AC0F6
:1020F0000C5F1F4F2FE3298388248394912C650163
:10210000E89457F853FC04C04814190409F018F572
:10211000342C8114910431F5332009F46ACFB701CE
:1021200080E290E00E94C6113A94F6CFF8018081D7
:1021300089830E5F1F4FE0CFF801C190D1908F01CE
:10214000692D70E056FC02C06FEF7FEFC6010E9460
:10215000BB114C01D5CFB70180E290E00E94C611BF
:102160004A94D2CFF60157FC859157FE81916F01B9
:10217000B70190E00E94C61131103A94F1E08F1A35
:102180009108C7CF843619F0893609F074C0F80178
:1021900057FE6AC061917191819191918F01252DB6
:1021A0002F76D22E97FF09C09095809570956195F6
:1021B0007F4F8F4F9F4F6894D7F82AE030E0A501FA
:1021C0000E94F611C82ECA188C2C5D2CD6FE0CC0AD
:1021D000E89450F8C91440F4D4FE05C0D2FC03C002
:1021E000FD2DFE7E5F2E892C54FE8FC0FE01EC0D6E
:1021F000F11D8081803309F081C0252D297E522E6A
:10220000852D8870382E53FC8FC050FE89C09C2CC1
:10221000841418F44C0C942C981854FE8BC0B701FD
:1022200080E390E00E94C61152FE09C088E790E06A
:1022300051FE02C088E590E0B7010E94C611C914A2
:1022400008F484C0CA94D12C9FEFC91AD90ACA0CC9
:10225000DB1CF60182916F01B70190E00E94C6116C
:10226000AC14BD04B1F758CF61917191072E000CE9
:10227000880B990B93CFD52CE894D4F82AE030E062
:10228000853739F1952D997FD92E8F3601F148F494
:102290008835A9F0F701868197812B96E2E10C94AD
:1022A0007012803749F08837A9F7D4FE02C06894CD
:1022B000D2F820E130E00DC06894D4F8F6CF54FE97
:1022C00003C0E92FE660DE2E20E132E002C028E004
:1022D00030E0F801D7FE0DC061917191819191912B
:1022E0008F01A5010E94F611C82ECA18E894D7F8EC
:1022F0006BCF6191719190E080E0F2CF52FC02C00F
:1023000083947ECF839483947BCF852D867809F444
:1023100077CFF6CFB70180E290E00E94C611839498
:102320008414C0F3312C79CF342C3818841408F479
:1023300074CFF8CF852D867809F481CF8BE251FEDA
:1023400080E257FC8DE2B70190E077CFB70180E3E0
:1023500090E00E94C6119A9472CF8FEF9FEF9DCFAD
:10236000FC010590615070400110D8F78095909560
:102370008E0F9F1F0895FC01615070400190011065
:10238000D8F7809590958E0F9F1F08950F931F93F8
:10239000CF93DF93182F092FEB018B8181FD09C0AB
:1023A0001FEF0FEF812F902FDF91CF911F910F9192
:1023B000089582FF14C02E813F818C819D81281752
:1023C00039073CF4E881F981CF010196998388832C
:1023D00010838E819F8101969F838E83E3CFE88552
:1023E000F985812F0995892BA1F3DACFFA01AA2764
:1023F000283051F1203181F1E8946F936E7F6E5F48
:102400007F4F8F4F9F4FAF4FB1E03ED0B4E03CD0F5
:10241000670F781F891F9A1FA11D680F791F8A1FD8
:10242000911DA11D6A0F711D811D911DA11D20D03F
:1024300009F468943F912AE0269F11243019305DF9
:102440003193DEF6CF010895462F4770405D4193EA
:10245000B3E00FD0C9F7F6CF462F4F70405D4A3337
:1024600018F0495D31FD4052419302D0A9F7EACFFF
:10247000B4E0A6959795879577956795BA95C9F72E
:1024800000976105710508959B01AC010A2E069421
:102490005795479537952795BA95C9F7620F731FDA
:1024A000841F951FA01D08952F923F924F925F9217
:1024B0006F927F928F929F92AF92BF92CF92DF9254
:1024C000EF92FF920F931F93CF93DF93CDB7DEB7B9
:1024D000CA1BDB0B0FB6F894DEBF0FBECDBF09944D
:1024E0002A88398848885F846E847D848C849B84A4
:1024F000AA84B984C884DF80EE80FD800C811B81B2
:10250000AA81B981CE0FD11D0FB6F894DEBF0FBEE0
:0A251000CDBFED010895F894FFCF50
:10251A00000079052000040A360A060A0001140A96
:10252A006464323200127A0000042896100800000F
:10253A00800040001815A015C019FF1815A115C86C
:10254A0019FF1815AE19FF1815AF19FF1815AE1592
:10255A00D5168015A8163F15D316001540158D16E9
:10256A00141520160015A115C815DA1612158116AC
:10257A00CF15D916F115DB1640152E15A415A61977
:04258A00FF256400C5
:00000001FF
